:020000040800F2
:2000000000000120911000088F1000088D1000088D1000088D1000088D10000800000000DB
:200020000000000000000000000000008F1000088F100008000000008F1000088906000834
:200040008D1000088D1000088D1000088D1000088D1000088D1000088D1000088D10000878
:200060008D1000088D1000088D1000088D1000088D1000088D1000088D1000088D10000858
:200080008D1000088D1000088D10000869090008750900088D1000088D1000088D10000882
:2000A0008D1000088D1000088D1000088D1000088D1000088D1000088D1000088D10000818
:2000C0008D1000088D1000088D1000088D1000088D1000088D1000088D1000088D100008F8
:2000E0008D1000088D1000088D1000088D1000088D1000088D1000088D1000088D100008D8
:200100008D1000088D1000088D1000088D1000088D1000088D1000088D1000088D100008B7
:200120008D1000088D1000088D1000088D1000088D1000088D1000088D10000879090008B2
:20014000850900088D1000088D100008090B0008094B0A4A19680A40B2F1005F0BD172B62A
:200160004FF0E0224FF48041C2F8081D1A6882F308885B6818477047004000080000FE2F86
:2001800038B572B600F058FA00F0E4FA00F0C0F900F060FA00F038FB00F06CFB40F6FF7325
:2001A00098420AD040F6E4425043B0FBF3F042F6A8735843154B984201D9FFF7C9FF1448F2
:2001C00000F01AFC62B64FF47A7001F011F9002501F0FEF80F4C01F035F900F031F908B180
:2001E000FFF7B6FF2378002BF5D02570E378002BF1D0E57000F042F9A368052BEBD100F086
:2002000017F90028E7D1FFF7A3FFE4E757282E01000000205C030020704770470022014B62
:200220001A707047340100207F222121014B01F034BD00BFF10200081921014801F07CB8B5
:20024000440000202DE9F041244F3B78042B03D0072B3ED0BDE8F081214C00F0F7FFB4F876
:200260000832DBB92378212B13D0412B0CD1D4F801001C4B984207D300F5007203F5E03343
:200280009A4201D800F00CFE00F0ECFF05233B70E0E7D4F80130C4F80432F5E7D4F804524D
:2002A000023B05EB43250F4B9D42EDD3B4F800320D4A2B449342E7D8A0460026B4F800328E
:2002C0009E42E1DA701938F8021B00F0B7FD0236F4E70122054B1A700223D8E75D00002098
:2002E0003801002000400008000002083501002070B51D460B78144603F07F03212B04983B
:2003000040F085804B78062B00F28180DFE803F02C04305A23792A003E4E0DB12B8823B9AE
:20032000062333703C4B036013E0CA788B783B4843EA0223A0F808322A88B2F5007F28BF69
:200340004FF40072A0F80022216802F02FF803233370012070BD2F4B1A780A2AF9D1022247
:200360001A70F6E72B4BFAE706222A4B1A70D9E70923284A13704B8853B922681370212288
:2003800023685A70412223689A7003232B80E0E72249023BD1F8041201EB4321B1F1006F90
:2003A0000CD31F4B01F50070984207D84FF400762068324601F0FAFF2E80CAE70A23137023
:2003C0000023E3E7134A002311782668032911D0062913D000213370266812787170216834
:2003E0008B702168CB7021680A712268537106232B8097E7042111706421ECE707211170F3
:20040000E8E7044A236812781A700123BEE70020A0E700BF5D0000204502000838010020CC
:20042000000002080022014B1A70704734010020024B1878023818BF012070475D0000206B
:200440000022024B18781A70704700BF35010020024B1989586800F0F8BD00BF60000020B4
:2004600008B5044B1989586800F0EDFD0022024B1A8008BD600000204C03002008B5FFF7C4
:20048000E7FF5A22014B1A8008BD00BF4C030020024B1989586800F0D8BD00BF6C000020A2
:2004A00008B5044B1989586800F0CDFD0022024B1A8008BD6C0000204E03002008B5FFF796
:2004C000E7FF5A22014B1A8008BD00BF4E030020024B1989586800F0B8BD00BF7800002074
:2004E00008B5044B1989586800F0ADFD0022024B1A8008BD780000205003002008B5FFF768
:20050000E7FF5A22014B1A8008BD00BF5003002010B5104C208800F09BFD238960680122B4
:20052000032100F0F3FA0C48012203890321406800F0ECFA0948012203890321406800F059
:20054000E5FAFFF7CDFFFFF7ABFFBDE81040FFF787BF00BF780000206C00002060000020C6
:200560000122014B1A707047460300202A4A08B513889BB233B11388013B9BB213800BB9EA
:20058000FFF7AEFF254A13889BB233B11388013B9BB213800BB9FFF783FF214A1388013350
:2005A0009BB2B3F57A7F13800ED300211D4B11801A7812B11970FFF7A1FF1B4B1A781AB188
:2005C00000221A70FFF77AFF184A13889BB25BB11388013B9BB21380EBB9154B1B78B3B1F8
:2005E000BDE80840FFF734BF114B1B7803F0FF01002BF5D10F4A138801339BB2B3F57A7F3C
:20060000138028BF118013889BB24F2BE8D9BDE80840FFF725BF08BD500300204E0300203C
:200620004A03002046030020450300204C0300204403002048030020014800F091BB00BFF7
:20064000A825000808B500F084FDBDE8084000F08EBD000008B5FFF7F5FF002000F068FD53
:2006600000224FF0E0239A61064B18684FF4FA53B0FBF3F000F056FD00F064FDBDE80840AB
:2006800000F06EBD2801002010B401241B4B1C491C705A6822445A600A6802F57A720A6015
:2006A00018490A88224492B2B2F57A7F23BF0020DC709A680A8028BF0880134924BF013242
:2006C0009A600A8828BF5860013292B2F92A83BF00220A8001220A800C4988BF9A700A8882
:2006E000013292B2312A81BF00220A8001225A7010BC98BF0A80FFF739BF00BF5C03002076
:200700005803002056030020540300205203002038B504460369A2680133B3FBF2F502FB86
:200720001533C068834212D022792368206902FB003001F03BFE2369A268013323612369C2
:200740000120B3FBF2F102FB1133236138BD0020FCE7000008B540F2833000F079FC1748C4
:2007600000F052FD7F21154800F030FD134800F037FD124800F039FD104800F02CFD104B55
:200780000E4819680F4BB1FBF3F14900013900F040FD4FF0FF31094800F03DFD074800F0BF
:2007A00029FD0121054800F038FD0448002100F03AFDBDE80840014800F021BD000C00409B
:2007C0003001002040420F00014800F02ABD00BF000C004038B50446FFF7F6FF0546034854
:2007E00000F01FFD431B9C42F9D838BD000C004038B504460025A54200D138BD4FF47A7069
:20080000FFF7E8FF0135F6E710B5184C40F2093000F01EFC208800F01BFC00222389114676
:20082000606800F073F9124800F0C5FB104800F0C7FB0F4800F0D4FB0D4800F085FB0C4851
:2008400000F0C3FB00F076FB0321094800F09EFB074800F05FFB0120FFF7CAFF044800F0D6
:2008600078FBBDE81040024800F086BB84000020002401400A2330B585B06A4601210E481D
:200880008DF80030082500F0B0FB00240A4800F049FB094800F09EFB0028FAD0064800F027
:2008A0009DFB04446420FFF795FF013DEED1C4F3CF0005B030BD00BF0024014030B5294AA9
:2008C00004461368406801338FB0136043699A0746D5C3689B0743D00025E36B2A46013366
:2008E000E3630DF11E0305930CAB04930DF11B0303930DF11A03029307AB01930DF11D03E7
:200900002946009308AB0895ADF81E508DF81C508DF81D5000F0B9FC2946606800F0AAFC1D
:20092000089B9DF81C200B934FF0FF330A939DF81B3009A903F00F0343EA02139DF81D20EC
:20094000206C43EA42139DF8242003F03F0322F03F0213438DF82430FFF7DAFEFFF700FE37
:200960000FB030BD680300200148FFF7A7BF00BFDC000020FFF7F8BF0148FFF79FBF00BFD7
:2009800090000020FFF7F8BF08B5044B1B689B6903B198470122024B1A7008BDE40500200C
:2009A000EC050020024B1B68DB6903B118477047E4050020024B1B685B6A03B118477047E0
:2009C000E4050020034B1B681B6B13B1024A106818477047E4050020E805002008B5044BF7
:2009E0001B689B6A03B198470022024B1A7008BDE4050020EC05002030B52D4D85B02860E8
:200A0000432000F0C7FB40F20C5000F02EFB40F2023000F01DFB4FF4237000F019FB2B6841
:200A20001B6903B198474FF4007329680293214B214801930B7A214C00934B68CA6809687F
:200A400000F008FD2B6820605B6903B198471C49206801F020FC20681A4901F031FC2068AC
:200A6000194900F021FD2068184900F01FFD1849206800F01DFD2068D0F8E030DB6898479C
:200A80000121144B2068197000F018FD0A20FFF7AFFE2068002100F011FD1021432000F0C7
:200AA00085FB432005B0BDE8304000F067BB00BFE4050020E4030020C4250008E8050020AA
:200AC00089090008A5090008DD090008B5090008C5090008ED050020084B10B51B785BB173
:200AE000074C206840B100F0E5FC064B20681B68BDE810401B6A184710BD00BFED05002086
:200B0000E8050020E4050020FFF7E6BF2DE9F04300264FF00F089C46036847684CFA06F423
:200B200014F0010F06F1010E1DD0072E94BF9946B946B4B24FEA84048ABF203CA4B2A4B2D0
:200B400008FA04F529EA0509A51C02FA05F501FA04F42C43072E44EA090405D823467646EE
:200B60003C462746DAE73C467646102EF9D103604460BDE8F0830000062824D8DFE800F07F
:200B800004090E13181D2000104B1868C0F3406070470E4B1868C0F3C06070470B4B1868B4
:200BA000C0F340707047094B1868C0F340407047064B1868C0F340007047044B186AF9E731
:200BC000024B586AF6E70020704700BF00100240024608B51046FFF7CFFF0028FAD008BD6B
:200BE00006282AD8DFE800F0040A0F14191E2400124A136843F08073136070470F4A136887
:200C000043F08063F8E70D4A136843F08053F3E70A4A136843F48033EEE7084A136843F09F
:200C20000103E9E7054A136A43F0010313627047024A536A43F001035362704700100240B3
:200C4000034A536823F0030303435360704700BF00100240034A536823F4701343EA804320
:200C60005360704700100240034AD36A23F4706343EA0023D362704700100240034AD36A2C
:200C800023F4704343EA0033D362704700100240034A536823F4803343EA00435360704740
:200CA00000100240034A536823F4003343EA40435360704700100240034A536823F4404382
:200CC00043EA80335360704700100240034A536823F4605343EAC0235360704700100240DA
:200CE000034A536823F4E06343EA00235360704700100240034A536823F0F00343EA001338
:200D00005360704700100240044B5A6818B142F480025A60704722F48002FAE70010024049
:200D2000034AD36A23F00F030343D362704700BF00100240034AD36A23F0F00343EA0013F1
:200D4000D362704700100240044BDA6A18B142F48032DA62704722F48032FAE70010024023
:200D600010B504464378012B0CBF03200420FFF737FFFFF72DFFA078FFF7BCFFE078FFF706
:200D8000AFFF2079FFF7A2FF6079FFF795FF207BFFF7BAFFA07900F049FA2078FFF75AFF95
:200DA0006078FFF775FFE07901282DD9FFF7B8FF207A08B1FFF7C8FF607A08B1FFF7BAFF6A
:200DC000A07A30B1FFF750FF0120FFF709FFFFF7FFFEE07A30B1FFF751FF0220FFF700FF29
:200DE000FFF7F6FE0020FFF7FBFEFFF7F1FE0220FFF726FF2269064B1A606269054B1A60ED
:200E0000A269054B1A6010BDFFF74CFFD0E700BF28010020300100202C01002038B5064D52
:200E2000EC6800F0C1FAB0F5007F84BFEB6C1C4304F0350038BD00BF0020024038B5044620
:200E40000D4600F0FDF900F0AFFAB0F5007F124B17D9124A944214D91A6D42F001021A65F5
:200E6000258000F0EDF900F09FFAB0F5007F0A4B0CD90A4A944209D91A6D22F001021A65E9
:200E800038BD1A6942F001021A61E9E71A6922F001021A61F4E700BF00200240FFFF07083E
:200EA00010B5044600F0CCF900F07EFAB0F5007F164B1BD9164A944218D91A6D42F00202A9
:200EC0001A655C651A6D42F040021A6500F0B8F900F06AFAB0F5007F0C4B11D90C4A9442D2
:200EE0000ED91A6D22F002021A6510BD1A6942F002021A615C611A6942F040021A61E5E7F3
:200F00001A6922F002021A61EFE700BF00200240FFFF07088368DB075EBF836843F00103AD
:200F2000836070478368DB0742BF836843F0010383607047034AD2F8083423F40003C2F866
:200F40000834704700200140836823F4801383607047836800F1080243F00803836013688C
:200F60001B07FCD47047836843F00403836070478068C0F38000704708B50246FFF7F3FF4A
:200F80001046FFF7F5FF0028FAD108BD0022134610B501FA02F403321E2A43EA0403F8D1AE
:200FA0000022036101FA02F40332182A43EA0403F8D1C36010BD836823F0010383607047BA
:200FC000436823F4807343607047836823F40063836070470068C0F340007047C06C70470E
:200FE000836823F00203836070471029F0B510D800234FF0010E1F469C461D465FFA8EF696
:201000008E4207D9013945EA0155C562C0F830C04763F0BDBEF1060F147806D89C402743C7
:201020000EF1010E01320533E8E7073E052E95BFA3F11E06A3F13C06B440B44094BF4CEA9D
:20104000040C2543ECE7016170470904016170470122430903F1804303F50433196800F040
:201060001F0082400A431A6070470122430903F1804303F50433196800F01F008240114316
:201080001960196821EA02021A607047FEE7704738B51A4A1A4B1B498B421AD300211A4A21
:2010A00093421BD34FF0E022D2F8143D174C43F40073174DC2F8143DAC4212D3154C164DFE
:2010C000AC4212D3FFF75CF8144C154DAC4210D338BD52F8040B43F8040BDDE743F8041BAA
:2010E000DEE754F8043B9847E6E754F8043B9847E6E754F8043B9847E8E700BF0026000897
:201100000000002034010020F8060020F8250008F8250008F8250008F8250008F825000883
:20112000F82500084FF0E02320F07F40586170474FF0E022136900F0040023F004030343F8
:20114000136170474FF0E022136943F00203136170474FF0E022136923F002031361704744
:201160004FF0E022136943F00103136170474FF0E022136923F001031361704701224309E2
:201180009B0003F1604300F01F0003F5614382401A60704701234109034A00F01F008340F2
:2011A00042F82130704700BF80E100E0432893BF00F16040044B00F00F0000F564408CBF6D
:2011C000C1540170704700BF14ED00E0C36823EA0103C3607047036823F080030360704701
:2011E000036823F0100303607047036823F0080303607047036823F0020303607047036899
:2012000043F0010303607047036823F001030360704781627047C162704743690B434361CF
:201220007047406A7047416270470000034A136823F0070303431360704700BF00200240C6
:2012400008B5FFF7EBFDC307FBD408BD034B044A5A6002F188325A60704700BF0020024000
:2012600023016745024A136943F08003136170470020024021B9C36843F02003C36070475E
:20128000036943F02003036170472DE9F3474FF4D876DDE90AA9DDE90C8EDDE90E4C4FF454
:2012A000E075CDE9006502AD05EB810555F8087CC559C61915F0040515BF01258AF80050F1
:2012C0008AF80050C55916BFC5596D0DED081D60C359C3F3400389F8003073681B0A88F8F9
:2012E0000030736803F00F038EF80030BCF1000F03D073681B0CACF80030B568F368C5F393
:20130000072625706670C5F30746C5F30765E570C3F3072523716571C3F30745C3F3076349
:20132000A670A571E37122B102B0BDE8F047FFF7A1BF02B0BDE8F087F0B505460C46194B02
:2013400089B003AA03F11007164618685968083303C6BB423246F7D11B786846337000F0EA
:2013600029F8192C28BF19240023611E681C8B4203DB00236B5409B0F0BD08AA02EB6302C6
:2013800012F8202C08AC04EB121402F00F0220326A4414F8144C12F8142CEC54C2540233EA
:2013A000E5E700BF47250008014BB3F8E007704700F0FF1F054BD3F8F0270260D3F8EC2719
:2013C0004260D3F8E8378360704700BF00F0FF1F4CF6CC42014B1A60704700BF003000401E
:2013E000024BD868C0F34000704700BF00300040C000012838BF0120002310B5411E0C0B28
:2014000003F1010219D1DBB2062B84BF40F6FF7106230B4AD068C007FCD445F255501060AB
:201420005360FFF7DDFF0028FBD145F2555313604AF6AA239160136010BD13464008DDE73E
:20144000003000404AF6AA22014B1A60704700BF003000402DE9F0411E46036817460546A6
:2014600088469847069B079AC36000230261BDF82020C0E900878282084AC0E9393342679B
:20148000074AC0E933330267064AC0E93533C0F8E0508660C266BDE8F08100BFC71C00086C
:2014A000291D0008AD1D0008C161704781627047C1627047D0F8E0305B6A1847D0F8E030EB
:2014C0009B6A03B11847704710B4D0F8E040A468A44610BC604737B5002504460368C5821B
:2014E000DB792A4629460095FFF7EEFFD4F8E03029465B6820469847E3691BB103B0BDE87E
:201500003040184703B030BD10B4D0F8E040E469A44610BC604710B4D0F8E040246AA446E2
:2015200010BC6047D0F8E0301B691847D0F8E0309B691847D0F8E0305B69184708B54FF447
:201540002370FFF785FD4FF0A043DA6842F04002DA601A69002AFCDA1A6942F001021A61B8
:201560004FF0A0431A69D207FCD4DA6B1A49B2F5005F9A6B08462CBF42F4041242F410227D
:201580009A634FF0A043D3F8042822F00202C3F80428DA6842F0804242F47052DA600222AC
:2015A0005A61D3F8002842F00302C3F800280022C3F8002E80225A62A1F8EC209A6842F021
:2015C00001029A60054A9A610F22C3F81C280122C3F8102808BD00BFF00500201028048029
:2015E000D0F8E030DA6AD2F8003823F4FE6343EA0113C2F8003870472DE9F047D0F8E0E096
:20160000884611F07F019C46089FDEF82C6003F07F0440D13F2B33D9C6F80019DEF82C308A
:201620004FEA9C0CC3F81049DEF82C2044F00054D2F8003944F4002443F00843C2F800393B
:20164000DEF82C30C0F8F440C3F8104BDEF82C20D2F8003B43F00843C2F8003BBEF83230A4
:20166000DEF82C2043EA0C439362B0F8EC309C441FFA8CFCA0F8ECC0A0F8EEC0BDE8F087EC
:201680001F2B03D90123C6F80039C7E70F2B8CBF02230323F7E718F0800F4FEA41154FEA4E
:2016A00082431CD144F4002400EB810206F53166C2F8F4407451DEF82C2005F5306543EA8B
:2016C0000C03AC5843F0144343F400432343AB50002FD3D00C2303FB01000767CEE7B0F8C7
:2016E000EC904FEA9C0249EA024A01F1400846F828A04A44A0F8EC20DEF82C2043EA815383
:2017000002F511625451DEF82C2005F5106543EA0C03AC5843F0184343F400432343AB5080
:20172000002FABD00C2303FB0103DF66A6E7B0F8EE3010B5A0F8EC304FF43263D0F8E0201D
:20174000D16A58580028BEBF585840F080405850D16AA3F5007044582033002CBEBF44583A
:2017600044F080444450B3F5386FE9D1D36A4FF486621A6110BD10B5D0F8E040E06AF1B983
:20178000D0F800395AB143F40013C0F80039E26A583149018B5843F400138B501AE023F4CA
:2017A0000013C0F80039E26A583149018B5823F400138B50E26A8B5843F08053EDE70B0604
:2017C00013D501F07F0348335B0122B11A5842F400121A5010BD1A5822F400121A50E16AC4
:2017E0005A5842F080525A50F4E7002ADBD0CEE70A06D0F8E03048BF01F07F01DB6A4CBF74
:20180000483158314901C858C0F3405070470B060CD4431883F8F020D0F8E0305831DB6AE5
:20182000490122B1CA5842F00062CA507047CA5842F08062F9E7F0B5D0F8E06001F07F01D0
:20184000F06A4C0100F5116005592D0316D41D4643F400270751F76A04F51064E0590131B1
:2018600040F00440E0510903002D01DC1846F0BDF06A52F8044B043D0C50F5E70023F5E737
:2018800037B5B0F8044101469C4228BF1C46154623461046032B1ADC14F0030214D0D1F80D
:2018A000E030A008DB6A05EB800003F580531B680193B1F80431042B38BF0423043BA1F8D6
:2018C000043101A900F072FD204603B030BDD1F8E020043BD26A02F58052126840F8042BD6
:2018E000B1F80421043AA1F80421D3E7D0F8E0302DE9F047DA6A0446566916F4005509D0BA
:20190000BDE8F0474FF400515B8E5161A0F8EC30FFF7E1BD4FF00C094FF0010A00F16C0871
:20192000D4F8E0306F01DB6A03F60813DB59D9070ED509FB05F358F8033013B12046E9B2C7
:201940009847D4F8E030DB6A03F6081343F807A00135042DE4D1F20654D5D4F8E010C86A66
:20196000026A02F4F013B3F5002F02F00F0522D10C2303FB0543294620465B6F9847D4F873
:20198000E01004EB8500CA6AD0F8F4006B0102F53162D050254495F8F000C96A00280CBFD1
:2019A0004FF004404FF0084003F530635A5802435A50BDE8F087B3F5C02FE0D0B3F5802F37
:2019C00001D1012309E0B3F5402FF2D16F0100F51163DB591B0353D40223C2F30A12022BD9
:2019E000A4F8042175D108232946204604F13402FFF746FF0023B4F80411994273DC002349
:201A0000A4F80431310508D5236A03B198474FF40062D4F8E030DB6A5A61002E08DA636A64
:201A200003B198474FF00042D4F8E030DB6A5A61320707D5A36A03B198470822D4F8E030FB
:201A4000DB6A5A61330408D5E36A03B198474FF40042D4F8E030DB6A5A61D4F8E010A26A69
:201A6000CB6A002A47D09A6942F008029A61E26ACB6A002A43D09A6942F400429A6198E703
:201A800007F5106350F803C04CF0006C40F803C0C86A00F6081CBC44DCF800E01EF0400FCC
:201AA000FAD01B589B0DD0F810C0BCF1000FFADA9B0103F4707343F0200303610020CB6A94
:201AC00003F51163D851CB6A103319688806FCD482E70C2303FB05431B6F002B8AD02946BE
:201AE0002046984786E7D4F8E0200433D26A02F58052126881E79A6922F00802B6E79A698B
:201B000022F40042BAE7D0F8E030DB6AD3F8042821B142F00202C3F80428704722F00202FC
:201B2000F9E710B503680446D979B0F84030C26B994211D20B460021FFF7E6FC022384F80B
:201B400030302368DA79E36B1344E363B4F840309B1AA4F8403010BD0021FFF7D5FC94F83E
:201B60004830C3F1030384F83030002384F84830A4F84030E363EEE72DE9F74F04460E461F
:201B8000054600F1200A00F1400B00F13C0800F14409EF6C57B1317895F8512095F8503019
:201BA00011408B420DD008355545F2D13146204604F1400304F13C0203B0BDE8F04F00F0C1
:201BC000DDBB5B46424631462046CDF80090B8470128E8D803B0BDE8F08F10B5012200214A
:201BE0000446FFF79FFC002384F8303010BD70B50368B0F84020448FDB79A41A9C42A8BF7C
:201C00001C46C16BA6B20A44334600210546FFF782FC864205D02846FFF7DFFF4FF0FF30EA
:201C200070BDB5F84030A0B21E44A5F84060F7E738B503690446C3638B79CA790D4643EAFB
:201C40000223A0F84030FFF797FF08B3EB88B3B1B4F84020934210D942B12368DB79B2FBF0
:201C6000F3F103FB1122B2FA82F25209204684F84820BDE83840FFF754BF0022F6E71A4605
:201C800019462046FFF740FC042384F8303038BD2046BDE83840FFF7A0BF70B504460025E9
:201CA00000F14C0656F8350028B10135042DF9D14FF0FF3070BD04EBC50484F8501084F8A9
:201CC0005120E364F6E770B50025044601222946456400F13406FFF72DFC628F2AB931460B
:201CE0002046BDE87040FFF7A3BF94F93430002BF5DBA38A934204D22046BDE87040FFF75C
:201D00006CBF2369A4F84050E36323682946DB79204693422CBF0623052384F830302A4689
:201D2000BDE87040FFF706BC10B590F830300446062B13D0072B28D0052B22D1FFF757FFF2
:201D400001300AD0B4F84020638F9B1A2268D279934202DC062384F8303010BDFFF747FF2F
:201D60000130FAD0204604F13401FFF705FF38B1002320461A461946FFF7C6FB0423EAE7FE
:201D80002046BDE81040FFF728BF00231A461946FFF7C1FB002384F83030636C1BB1204677
:201DA00004F13401984700236364D6E710B590F830300446032B07D0042B0ED0022B23D149
:201DC000BDE81040FFF7ADBE0723002280F830301146BDE81040FFF7ADBB436C13B100F17B
:201DE0003401984794F8343053B994F83530052B06D1E18ED4F8E03020465B68C9B298470D
:201E0000002384F8303010BDBDE81040FFF7E5BE08B50B7873B949887F2909D8D0F8E030CA
:201E2000C9B2817593F830200AB15B6898470123184608BD0023FBE7F8B50D464988044692
:201E400079B103680D26587C0023984201D80020F8BD626806FB032252798A4203D00133AD
:201E6000F3E74FF0FF330133DBB2E3754BB9D4F8E0302046DB689847D4F8CC309BB9012059
:201E8000E6E70D22534362680D3B1A440023184611799942EBD9D2F809101E01715801B119
:201EA00008700133F4E7002304F1C806E3646365E365636604F1D80756F8043F13B1204606
:201EC00069889847BE42F7D1D9E71988012984BF01211980C37D11682BB142680D2000FB7A
:201EE000032313F8083C01200B70704770B51C460D23C27D5A4343680D3A13441D798A8896
:201F0000954219D9D3F80950160105EB02124B8812799A4210D9AA5952B11370D0F8DC3039
:201F200013B14A888988984700230120238070BD002BF3D01046FAE70020F8E730B50D25CC
:201F4000C47D40686C430D3C20448D880479A5420CD201241C808B88D0F809001B011B58B1
:201F600003B11B7801201268137030BD0020FCE719880120022984BF022119800023116884
:201F80000B7012685370704710B514461A88022A84BF02221A808988C9B2FFF7C7FA003869
:201FA00018BF0120002223681870236801205A7010BD08B589880122C9B2FFF7B3FA012081
:201FC00008BD08B589880022C9B2FFF7ABFA012008BD2DE9F04F1F464B8816461A0A022A17
:201FE000054689B011D0032A00F0F080012A40F0448103683A8833601B78934228BF134667
:202000003B80012009B0BDE8F08F0269DBB2326002920D2202FB03F8D0F804903C8819F891
:20202000085009EB0803A54228BF254619462A460298049300F0BAF9029B641B5E190023B7
:2020400019F80880A4B20193049B1A79BDF804309A4204D8029BA3F802803D80D1E7019B5F
:20206000019A1B010593049BD3F8093003EB0213D3F808A0BAF1000F15D09AF800903046C1
:20208000A14528BFA14651464A4600F08FF99AF80030A4EB09044E444344A944A4B21FFA1A
:2020A00089F51FFA83F800230393049B059AD3F8093013441979BDF80C20914202D8019B00
:2020C0000133C0E71521039AD3F80CA001FB02F91AF809B00AEB0903A34528BFA346194601
:2020E0005A463046009300F061F91AF80930A4EB0B0443441FFA83F8009B5E44D3F80D10C4
:20210000AB44A4B21FFA8BF5B9B1D3F811A03046A245A8BFA2461FFA8AF94A4600F046F9F4
:20212000009BA4EB0904D3F811304E444344A944A4B21FFA89F51FFA83F84FF00009009BF2
:202140001A791FFA89F39A4202D8039B0133ABE7009BC9EB091BD3F80930304613F80B201A
:2021600003EB0B0AA24228BF224651460793069200F01CF9079B069A13F80B30DAF80710EA
:20218000A41A164443442A44A4B295B21FFA83F8C9B1DAF80B203046A242A8BF22461FFA48
:2021A00082FB5A46CDF818B000F000F9DAF80B30069AA4EB0B044344AB441644A4B21FFA02
:2021C0008BF51FFA83F809F10109B8E713F0FF0304690DD10923A3700423E37023703B88E9
:2021E000042B28BF04233B8003236370346008E7D0F8E4209A4219D1D0F8E850284600F07B
:202200004BF901304000C0B220703B88834228BF03463B8000233A885208013A9A42E3DD7E
:20222000E95C04EB430251800133F4E78068013B00283FF4E7AEEA689A421EDD40F209428B
:202240008988914219D150F82350284600F024F901304000C0B220703B88834228BF03464F
:202260003B8000233A885208013A9A42BCDDE95C04EB430251800133F4E70020C2E61988F2
:202280000120022984BF02211980002311680B70126853707047002310B500F1C80252F8FB
:2022A000044F3CB18C4209D00133042BF7D14FF0FF3010BD00EB8300C0F8CC100020F8E7D0
:2022C000C0F8DC107047000030B44C78092C12D8DFE804F005111111110D0F11090B074C44
:2022E000A44630BC6047064CFAE7064CF8E7064CF6E7064CF4E7002030BC7047711F000846
:20230000CB1E0008391E0008111E0008D31F000810B44C780A2C06D00B2C06D03CB9054C55
:20232000A44610BC6047044CFAE7044CF8E7002010BC70477F2200083D1F0008ED1E00081D
:2023400010B44C78012C05D0032C08D074B1002010BC70474C88002CF9D1054C03E04C8852
:20236000002CF4D1034CA44610BC6047024CFAE7C31F0008B31F0008891F000810B40C78D5
:2023800014F0600F0FD104F01F04012C05D0022C06D044B910BCFFF797BF10BCFFF7B8BF7F
:2023A00010BCFFF7CDBF002010BC7047844641EA000313F0030349D1403A23D30B680360CB
:2023C0004B6843608B688360CB68C3600B6903614B6943618B698361CB69C3610B6A036241
:2023E0004B6A43628B6A8362CB6AC3620B6B03634B6B43638B6B8363CB6BC36340304031FE
:20240000403ADBD230320BD30B6803604B6843608B688360CB68C36010301031103AF3D26D
:202420000C3205D351F8043B40F8043B043AF9D2043208D0D2071CBF11F8013B00F8013B43
:2024400001D30B8803806046704700BF082A13D38B07B1D010F00303AED0C3F10403D21A20
:20246000DB071CBF11F8013B00F8013BA4D331F8023B20F8023B9FE7043AD9D3013A11F840
:20248000013B00F8013BF9D20B7803704B7843708B7883706046704720F0030110F003002B
:2024A000C0F1000051F8043B00F1040C4FEACC0C6FF000021CBF22FA0CF213434FF0010CD9
:2024C0004CEA0C2C4CEA0C4CA3EB0C0222EA030212EACC1204BF51F8043B0430F4D0C2F183
:2024E000000102EA0102B2FA82F2C2F11F0200EBD200704753544D6963726F656C656374D6
:20250000726F6E6963730053544D33322020424F4F544C4F414445520040496E7465726EF9
:20252000616C20466C61736820202F307830383030303030302F382A3030324B612C3536BB
:202540002A3030324B6700303132333435363738394142434445460009020000010100C09E
:202560003268250008000000000000000100000000000000782500080904000000FE0102E0
:2025800004000000008D2500080900000009210BFF0000021A011201000200000040830447
:2025A00011DF0002010203010701000400030200000000000000000000A24A0400512502A9
:2025C00000A24A043D150008E1150008F91500082F170008771700080F180008F11700087A
:2025E0003718000881180008ED180008071B00080000005001008000B4FDFF7F01000000AB
:20260000962500083400002004000000582500083902000800000000290200081902000881
:202620001B020008000000001D0200082504000800000000F4240008072500084400002065
:20264000192500083931310000000000000000000000000000000000000000000002000097
:2026600003030000000C01400400000003030000000C01400008000003030000000C014055
:20268000000400000403000000100140000400009A030000006800400E0000003F00000048
:2026A0004000000003030000000C01400020000003030000000C01400010000003030000FE
:2026C000000C014080000000000000000000000080030020940300206C03002099030000A8
:2026E0000064004000000000130000001400000003030000000C01400002000003030000B4
:20270000000C01400001000003030000000C0140080000000000000000000000BC03002031
:14272000D0030020A803002000127A0000127A0000127A0043
:20400000000001200D57000809570008075700080757000807570008075700080000000013
:2040200000000000000000000000000009570008095700080000000009570008AD4C000847
:20404000075700080757000807570008075700080757000807570008075700080757000830
:20406000075700080757000807570008075700080757000807570008075700080757000810
:20408000075700080757000807570008A1510008AD510008075700080757000807570008BC
:2040A0000757000807570008075700080757000807570008075700080757000807570008D0
:2040C0000757000807570008075700080757000807570008075700080757000807570008B0
:2040E000075700080757000807570008075700080757000807570008075700080757000890
:2041000007570008075700080757000807570008075700080757000807570008075700086F
:2041200007570008075700080757000807570008075700080757000807570008B1510008AB
:20414000BD5100080757000807570008AD530008F8B506460F461546002472B6B069391915
:2041600000F0EFFD62B60134AC42F6D3F8BD0000402330B51D4C89B08DF800302378ADF8CB
:2041800002105D1C8DF801301A232570ADF804301378174913F0200F08BF4FF08051CDF87A
:2041A000061014494968CDF80A100021ADF80E10ADF810109168CDF8121003F00F0113F06D
:2041C0001003ADF8161005D10B320DF11704DDB2A94205D820226946FFF7BAFF09B030BD38
:2041E00012F8015F013304F8015FF0E760110020010000107811002080B5A8B072B600F0FE
:204200002DFD00F0DBFD00F065FC00F08BFC00F033FD4FF47A7001F06DFDB84801F03EF815
:2042200000F068FF6022002110A802F041FD00F0A3FE129000F09CFE149000F0E5FB1590C6
:2042400000F0DEFB169062B6AD4DAE4C002601F07BFD8DF80F6072B615980DF10F0100F08D
:2042600091FD62B6002800F0C4802B689DF80F10052B4FF0000388BF8DF89C602B609DF89B
:204280009C3003F1A0020133DBB26A44032B02F8441C8DF89C3040F2AC809DF85C20192AC2
:2042A00022D8002A00F09E82013A0BAE182A00F29982DFE812F04D006000760088003700DC
:2042C00097029702DB000601970297029702970297021B0297023101970297029702970281
:2042E000970297028801AA01402A00F0A881A52A40F078829DF85E20A52A40F083829DF830
:204300005D209DF85F1052EA010640F07B824FF05A130B9304220BA910A8FFF719FF8DF83D
:204320009C6066E09DF85D3005228DF82D304FF48073ADF82E3001238DF82C208DF83030FD
:20434000314610A8FFF704FF00238DF89C3050E001238DF82C309DF85D300A228DF82D305C
:204360004FF4C063ADF82E30674B18689B880C90ADF83430E4E702238DF82C309DF85D30E7
:204380008DF82D304FF4E063ADF82E305F4B9A8818689B79ADF834200C900B228DF83630A5
:2043A000CEE703238DF82C309DF85D30584A8DF82D304FF4006310685168ADF82E300CAB0A
:2043C0000C2203C3BCE79DF85D3000278DF82D309DF85E300422012B14BFFF238423314693
:2043E00010A8ADF82E708DF82C30FFF7B1FE8DF89C70129E0BA9304600F014FF48B19DF840
:204400004430DA0705D54FF400510BAA10A8FFF7AFFE304600F0D4FE149E0BA9304600F0C5
:2044200001FF48B19DF84C30DB0705D54FF480410BAA10A8FFF79CFE304600F0C1FE2378F5
:20444000002B3FF403AF0022227063781BB12B68627001332B60A3780BB10023A370E37865
:20446000002B3FF4F2AE0023E370EEE6882300278DF82C309DF85D300422314610A88DF845
:204480002D30ADF82E70FFF763FE8DF89C7000F0BFFA9DF84030012043F001038DF8403099
:2044A00000F05EFB9DF8443067F300038DF844309DF84C3067F300038DF84C30154B1F70F6
:2044C00097E7892300278DF82C309DF85D3010A8042231468DF82D30ADF82E70FFF738FEE2
:2044E0008DF89C7000F09AFA9DF84030384667F300038DF8403000F033FB7AE7180000201B
:204500005C11002078110020100000200800002000000020601100209DF85F20043293423D
:20452000C0F0708111218DF82C109DF85D109DF85E308DF82D10002103F0F002202AADF80B
:204540002E1022D0A2F14000424242410DF14C0C9CF80070F90770D49DF840100A426CD046
:2045600003F00F03092B14D19DF86030022B64D81BB947F002078CF800709DF82C3043F063
:20458000800304228DF82C30DAE601220DF1440CDEE7022B51D1BDF86600BDF86430BDF833
:2045A00062200138000647F00407BDF86010013B8CF80070013A0090DCF804001B051204CA
:2045C00000F0DEFCD9E79DF85D309DF85E208DF82D30002302F0F002ADF82E309DF840302B
:2045E000202A03F001030ED0402A14BF002303F0010313A90A7850071FD5F3B142F00102E3
:2046000098230A70BDE711A9F4E79DF85D209DF85E308DF82D20002203F0F003202BADF82D
:204620002E2008D0402B08D113AB1A7822F007021A709923A5E711ABF7E7FF23A1E7BDF8DA
:20464000602006329342C0F0DD80BDF85E60B6F5005F40D0A6F580414E424E4113AA137870
:20466000DDF8627013F0010307F001073CD0EEB1BDF86A100DF16B0001F00F039DF82C1076
:204680009C4621F03F0143EA47130B438DF82C30DDF866300DF137010D9300235FFA83FEF3
:2046A000F4451BD850680BA900F0B2FD002F3FF44BAE9DF85D3006228DF82D3000239E4239
:2046C000ADF82E30ADF830300CBFFF23C0230BA98DF82C3035E6012611AAC0E710F801EFD1
:2046E000013301F801EFD9E71E46DFE79DF85F2004329342C0F08680444B07AF0FCB87E850
:204700000F0018AB0FCB86E80F0002260DA8302250E9028102F1FF3C0CF0030328AF07EB8C
:20472000830353F8847C0B464FEA182E8EEA881EA1EB0801C3EB4803A1EB0E01023A73449E
:20474000A1EB0C0163440DF1A00E02F0030C0EEB8C0C5CF884CCC91B9B1AA3EB0C034FEAC8
:2047600011283B4488EA8118A3EB0808002AD1D1012E40E9028100F1080001D00126C6E793
:20478000234B19685E68B30102F0030028AF83EA162307EB800050F8740C134433440344EF
:2047A0001944531C1E44080A03F003030E4480EA811007EB83033044023253F8746C302ACE
:2047C0000644E0D10F238DF810309DF85D30CDE905168DF811304FF400630C22ADF8123073
:2047E00004A9AEE59DF85F20043293420AD3FF2300268DF82C309DF85D30ADF82E608DF87A
:204800002D3087E53F2B3FF69FADF2E5946E0008000000207047000013B504460F4B02229C
:2048200000930121402301F0D1FA0D4B2046009302224023822101F0C9FA00232046009359
:2048400003220823832101F0C1FA7F2221212046044B02B0BDE8104001F0A1BEA548000834
:20486000E14800087149000810B519210B4801F0F3F90B494FF4FA630C46A1F11400012207
:2048800000F058FA20464FF4FA6304F2E4710122BDE81040184400F04DBA00BF58000020E3
:2048A0008C00002070B592B002AE4023324601F07F0101F0B2FA054668B101220024074B4F
:2048C0005A7003F5FD63019331190198013400F038FAA542F8DC12B070BD00BF74000020EB
:2048E00000232DE9F0411B4E92B08DF807307378074663B301F07F056B0103F1A043D3F816
:20490000104914F4002422D10DF1080812480DF1070100F037FA48B19DF807300134402C2A
:2049200008F8013BF2D10123B37004E014F0FF0401D1B3785BB123462946384602AA01F04A
:2049400065FA84421CBF002373700023B37012B0BDE8F0817400002078000020034B5B78E6
:2049600013B10221FFF7BCBF704700BF7400002030B5087800F07F0021280CD1194C888866
:204980002578C0B2854206D14878212819D0222803D0202807D0022004E04B8803F001036C
:2049A0006370012030BD1B88062B18D913681868C4F8CC0F9A889B79A4F8D02F84F8D23F61
:2049C000EFE71B88062B0AD91368D4F8CC0F1860B4F8D01F94F8D22F99809A71E1E700207C
:2049E000E0E700BF740000200022014B5A707047740000200022014B5A7070477400002097
:204A00000048704778000020004870475C0800200122014B5A707047740000200022014B8A
:204A20005A70704774000020024B1989586800F049BE00BF4810002008B5044B1989586816
:204A400000F03EFE0022024B1A8008BD4810002068110020024B1989586800F033BE00BFFC
:204A60005410002008B5044B1989586800F028FE0022024B1A8008BD541000206A11002041
:204A800008B5FFF7E7FF5A22014B1A8008BD00BF6A110020024B1989586800F013BE00BFCD
:204AA0006010002008B5044B1989586800F008FE0022024B1A8008BD601000206C11002007
:204AC00008B5FFF7E7FF5A22014B1A8008BD00BF6C11002010B5104C208800F0F6FD238962
:204AE00060680122032100F063FC0C48012203890321406800F05CFC09480122038903211D
:204B0000406800F055FCFFF7CDFFFFF7ABFFBDE81040FFF791BF00BF60100020541000203C
:204B20004810002008B5FFF7B5FFFFF793FFFFF77BFFC82000F090F9FFF7B4FFFFF792FF0D
:204B4000BDE80840FFF778BF0122014B1A707047631100200122014B1A70704762110020B4
:204B600000384FF0000218BF0120064B064918700A8006490A801B780BB1FFF755BFFFF7EA
:204B80005BBF00BF6111002064110020681100202A4A08B513889BB233B11388013B9BB25B
:204BA00013800BB9FFF77EFF254A13889BB233B11388013B9BB213800BB9FFF753FF214AC2
:204BC000138801339BB2B3F57A7F13800ED300211D4B11801A7812B11970FFF771FF1B4BE0
:204BE0001A781AB100221A70FFF74AFF184A13889BB25BB11388013B9BB21380EBB9154B5C
:204C00001B78B3B1BDE80840FFF70EBF114B1B7803F0FF01002BF5D10F4A138801339BB2A5
:204C2000B3F57A7F138028BF118013889BB24F2BE8D9BDE80840FFF7FFBE08BD6C110020A3
:204C40006A110020661100206311002062110020681100206111002064110020014800F002
:204C6000D1BC00BF8C6F000808B500F0B0FDBDE8084000F0BABD000008B5FFF7F5FF002070
:204C800000F094FD00224FF0E0239A61064B18684FF4FA53B0FBF3F000F082FD00F090FD59
:204CA000BDE8084000F09ABD5011002010B401241B4B1C491C705A6822445A600A6802F5B4
:204CC0007A720A6018490A88224492B2B2F57A7F23BF0020DC709A680A8028BF088013499C
:204CE00024BF01329A600A8828BF5860013292B2F92A83BF00220A8001220A800C4988BFA2
:204D00009A700A88013292B2312A81BF00220A8001225A7010BC98BF0A80FFF739BF00BFF2
:204D2000781100207411002072110020701100206E110020836000230160C36002710361E1
:204D4000704738B504460369A2680133B3FBF2F502FB1533C068834212D022792368206963
:204D600002FB003001F0F2FF2369A2680133236123690120B3FBF2F102FB1133236138BDDE
:204D80000020FCE710B50446E268236908469A4212D022792368E16802FB013101F0D6FFBB
:204DA000E368A2680133E360E3680120B3FBF2F102FB1133E36010BD0020FCE708B540F2E7
:204DC000833000F082FC174800F05CFD7F21154800F03AFD134800F041FD124800F043FDD3
:204DE000104800F036FD104B0E4819680F4BB1FBF3F14900013900F04AFD4FF0FF310948A2
:204E000000F047FD074800F033FD0121054800F042FD0448002100F044FDBDE8084001487D
:204E200000F02BBD000C00405811002040420F00014800F034BD00BF000C004038B50446C8
:204E4000FFF7F6FF0546034800F029FD431B9C42F9D838BD000C004038B504460025A5422A
:204E600000D138BD4FF47A70FFF7E8FF0135F6E710B50446008800F028FC208C00F025FCE7
:204E8000A08A00F022FCA08D00F01FFC238D0222606A002100F08CFA218D606A00F010FCF9
:204EA000A38B0222A069032100F082FAA18E206B00F008FCA38E206B0022BDE81040032162
:204EC00000F076BA30B5294A04461368406801338FB0136043699A0746D5C3689B0743D0BF
:204EE0000025E36B2A460133E3630DF11E0305930CAB04930DF11B0303930DF11A030293EE
:204F000007AB01930DF11D032946009308AB0895ADF81E508DF81C508DF81D5000F03DFEBA
:204F20002946606800F02EFE089B9DF81C200B934FF0FF330A939DF81B3009A903F00F0367
:204F400043EA02139DF81D20206C43EA42139DF8242003F03F0322F03F0213438DF824309F
:204F6000FFF7EFFEFFF7F0FD0FB030BD84110020004870470411002000487047B8100020EF
:204F80002DE9F041044688461F468AB0007C164600F03EFC207B00F03BFC606800254369B6
:204FA00000F08CFCCDE905780127109BCDE90755CDE901570496039300952B463A4629462E
:204FC000606800F087FC064638BB0097034602460146207A00F060FD114B9C4207D1114896
:204FE0000097334632463146007A00F055FD0221606800F05EFD0121207C00F015FC0121DF
:20500000207B00F011FC207B00F0F6FB207C00F0F3FB01200AB0BDE8F0812846FAE700BF03
:2050200004110020B810002010B50446007C00F0EFFB207B00F0ECFB208800F046FB6068DB
:2050400000F03CFCA08D00F040FBA18E206B00F037FB208C00F039FB238D01220021606A66
:2050600000F0A6F9A08A00F030FBA38BA0690122BDE81040002100F09BB9000070B5054638
:20508000194EC0B1194C2046FFF7CEFF7368184843F480037360FFF7EBFEA18E206B00F059
:2050A0000FFBA38E206B0022032100F081F9BDE87040FFF7CFBC0E4C2046FFF7B5FF73685F
:2050C0000A4823F480037360FFF7D2FEA18E206B00F0F6FA2A46A38E206B032100F068F910
:2050E000BDE87040FFF7BEBC00000140B81000206C10002008B51422C8231B491B48FFF78B
:2051000019FEC82314221A491A48FFF713FEC823142219491948FFF70DFEC8231422184924
:205120001848FFF707FEC823142217491748FFF701FEC823142216491648FFF7FBFD4FF430
:20514000407000F0C2FA4FF00072134B13485A605A6842F480425A60FFF78AFEBDE80840F0
:205160000020FFF78BBF00BF58500020F85F00200C600020AC6F0020A44000204450002052
:205180003C210020DC300020F030002090400020881100202821002000000140041100209E
:2051A0000148FFF78FBE00BF04110020FFF7F8BF0148FFF787BE00BFB8100020FFF7F8BFEA
:2051C00010B5044688B0406800F03EFDF0B172B6606C03A9FFF7D6FD62B6B8B19DF80C2069
:2051E00006AB019302F00F0300930599C2F300136068C2F3401200F060FCFFF7ABFCA36BA7
:20520000A06C0133A36303A9FFF79BFD08B010BD10B50446406CFFF794FD2046BDE81040EC
:20522000FFF7CEBF006CFFF7ADBD000008B5044B1B689B6903B198470122024B1A7008BD3A
:20524000C0710020C8710020024B1B68DB6903B118477047C0710020024B1B685B6A03B12C
:2052600018477047C0710020034B1B681B6B13B1024A106818477047C0710020C47100202C
:2052800008B5044B1B689B6A03B198470022024B1A7008BDC0710020C871002030B52D4D20
:2052A00085B02860432000F0B3FA40F20C5000F019FA40F2023000F008FA4FF4237000F084
:2052C00004FA2B681B6903B198474FF4007329680293214B214801930B7A214C00934B68A9
:2052E000CA68096800F038FD2B6820605B6903B198471C49206801F050FC20681A4901F076
:2053000061FC2068194900F051FD2068184900F04FFD1849206800F04DFD2068D0F8E03060
:20532000DB6898470121144B2068197000F048FD0A20FFF791FD2068002100F041FD1021CE
:20534000432000F071FA432005B0BDE8304000F053BA00BFC0710020C06F0020A86F0008E7
:20536000C47100202D52000849520008815200085952000869520008C9710020084B10B5EB
:205380001B785BB1074C206840B100F015FD064B20681B68BDE810401B6A184710BD00BFDF
:2053A000C9710020C4710020C0710020FFF7E6BF2DE9F04300264FF00F089C460368476891
:2053C0004CFA06F414F0010F06F1010E1DD0072E94BF9946B946B4B24FEA84048ABF203C54
:2053E000A4B2A4B208FA04F529EA0509A51C02FA05F501FA04F42C43072E44EA090405D87F
:20540000234676463C462746DAE73C467646102EF9D103604460BDE8F0830000062824D828
:20542000DFE800F004090E13181D2000104B1868C0F3406070470E4B1868C0F3C0607047EA
:205440000B4B1868C0F340707047094B1868C0F340407047064B1868C0F340007047044BD4
:20546000186AF9E7024B586AF6E70020704700BF00100240024608B51046FFF7CFFF0028AF
:20548000FAD008BD06282AD8DFE800F0040A0F14191E2400124A136843F0807313607047E3
:2054A0000F4A136843F08063F8E70D4A136843F08053F3E70A4A136843F48033EEE7084A91
:2054C000136843F00103E9E7054A136A43F0010313627047024A536A43F00103536270476F
:2054E00000100240034A536823F0030303435360704700BF00100240034A536823F47013D6
:2055000043EA80435360704700100240034AD36A23F4706343EA0023D362704700100240DD
:20552000034AD36A23F4704343EA0033D362704700100240034A536823F4803343EA004337
:205540005360704700100240034A536823F4003343EA40435360704700100240034A5368C9
:2055600023F4404343EA80335360704700100240034A536823F4605343EAC02353607047A9
:2055800000100240034A536823F4E06343EA00235360704700100240034A536823F0F0033D
:2055A00043EA00135360704700100240044B5A6818B142F480025A60704722F48002FAE773
:2055C00000100240034AD36A23F00F030343D362704700BF00100240034AD36A23F0F003F7
:2055E00043EA0013D362704700100240044BDA6A18B142F48032DA62704722F48032FAE74D
:205600000010024010B504464378012B0CBF03200420FFF737FFFFF72DFFA078FFF7BCFF19
:20562000E078FFF7AFFF2079FFF7A2FF6079FFF795FF207BFFF7BAFFA07900F035F92078C2
:20564000FFF75AFF6078FFF775FFE07901282DD9FFF7B8FF207A08B1FFF7C8FF607A08B1E1
:20566000FFF7BAFFA07A30B1FFF750FF0120FFF709FFFFF7FFFEE07A30B1FFF751FF022086
:20568000FFF700FFFFF7F6FE0020FFF7FBFEFFF7F1FE0220FFF726FF2269064B1A606269D9
:2056A000054B1A60A269054B1A6010BDFFF74CFFD0E700BF50110020581100205411002038
:2056C000016170470904016170470122430903F1804303F50433196800F01F0082400A4397
:2056E0001A6070470122430903F1804303F50433196800F01F00824011431960196821EA79
:2057000002021A607047FEE77047000038B51A4A1A4B1B498B421AD300211A4A93421BD39C
:205720004FF0E022D2F8143D174C43F40073174DC2F8143DAC4212D3154C164DAC4212D327
:20574000FEF75AFD144C154DAC4210D338BD52F8040B43F8040BDDE743F8041BDEE754F8A3
:20576000043B9847E6E754F8043B9847E6E754F8043B9847E8E700BFE46F00080000002094
:205780005C110020D4720020DC6F0008DC6F0008DC6F0008DC6F0008DC6F0008DC6F000824
:2057A0004FF0E02320F07F40586170474FF0E022136900F0040023F004030343136170472C
:2057C0004FF0E022136943F00203136170474FF0E022136923F00203136170474FF0E02268
:2057E000136943F00103136170474FF0E022136923F0010313617047012243099B0003F1CE
:20580000604300F01F0003F5614382401A60704701234109034A00F01F00834042F821302F
:20582000704700BF80E100E0432893BF00F16040044B00F00F0000F564408CBFC1540170AB
:20584000704700BF14ED00E0C36823EA0103C3607047036823F0800303607047036823F042
:20586000100303607047036823F0080303607047036823F0020303607047036843F0010319
:2058800003607047036823F001030360704781627047C162704743690B4343617047406ADF
:2058A0007047416270470000034A136823F0070303431360704700BF00200240044B984238
:2058C0000CBF40F2192040F21A20FFF70BBF00BF006400402DE9F3410468884624F0020465
:2058E00004600468964644F0010404604FF6FF749DF820C09DF824109DF828209DF83C605B
:205900009DF840700194019C051D013C019414B14468E407F7D54468E4076ED50024C461D1
:205920000468B8F1000F4FD044F0800404600468BEF1000F4BD044F040040460002B49D0A3
:20594000036843F0200303600368BCF1000F45D043F0100303600368002942D043F008035A
:2059600003600368002A3FD043F004030360C369002F3CD043F00043C361C369002E39D01F
:2059800043F08043C3610E9B0D99013BC3F309030B430C99C2690B430B990B431343C361C8
:2059A000036823F0010303604FF6FF730193019B013B019313B12B68DB07F8D4406800F0AE
:2059C000010002B0BDE8F08124F08004AEE724F04004B2E7036823F02003B4E723F010037E
:2059E000B8E723F00803BBE723F00403BEE723F00043C1E723F08043C4E70120E1E7000021
:205A0000F0B50125234C9DF81C70D4F80066854046F00106C4F80066D4F81CE6EE432EEABE
:205A2000050EC4F81CE639B3D4F80C162943C4F80C162AB3D4F804262A4300F1006000F6EA
:205A4000C840C4F80426C0000360069A059B4360104BCAB1D3F814262A43C3F8142627B13D
:205A6000D3F81C262A43C3F81C26D3F8002622F00102C3F80026F0BDD4F80C163140D6E7FF
:205A8000D4F804263240D8E7D3F814261640C3F81466E4E7006000401FB59DF81840009291
:205AA000CDE9013400220B460121FFF7A9FF04B010BD43690B43436170472DE9F0418046E5
:205AC00080689DF818E04501079E2AD4D8F8080004012AD4D8F80800C00050D54FF4D07548
:205AE000022005EB080422B3C90041F0040145F808101BB1236843F002032360636823F06F
:205B00000F03636062680EF00F03134363600EF1FF33072B2AD8DFE803F02623201B1815ED
:205B2000120E4FF4C0750020DBE74FF4C8750120D7E74905DBE70027F37963F31F67B379E1
:205B400063F31747737963F30F27337963F307074FF0000CF37863F31F6CB37863F3174C8E
:205B6000737863F30F2C337863F3070CC4F808C0E760236843F001032360BDE8F0814FF030
:205B8000FF30FAE721B9C36843F02003C3607047036943F02003036170472DE9F3474FF450
:205BA000D876DDE90AA9DDE90C8EDDE90E4C4FF4E075CDE9006502AD05EB810555F8087CF5
:205BC000C559C61915F0040515BF01258AF800508AF80050C55916BFC5596D0DED081D601F
:205BE000C359C3F3400389F8003073681B0A88F80030736803F00F038EF80030BCF1000FDD
:205C000003D073681B0CACF80030B568F368C5F3072625706670C5F30746C5F30765E57095
:205C2000C3F3072523716571C3F30745C3F30763A670A571E37122B102B0BDE8F047FFF71F
:205C4000A1BF02B0BDE8F087806800F0E050003818BF012070470000F0B505460C46194B81
:205C600089B003AA03F11007164618685968083303C6BB423246F7D11B786846337000F081
:205C800023F8192C28BF19240023611E681C8B4203DB00236B5409B0F0BD08AA02EB630263
:205CA00012F8202C08AC04EB121402F00F0220326A4414F8144C12F8142CEC54C254023381
:205CC000E5E700BF686F0008054BD3F8F0270260D3F8EC274260D3F8E8378360704700BF03
:205CE00000F0FF1F024BD868C0F34000704700BF00300040C000012838BF0120002310B547
:205D0000411E0C0B03F1010219D1DBB2062B84BF40F6FF7106230B4AD068C007FCD445F201
:205D2000555010605360FFF7DDFF0028FBD145F2555313604AF6AA239160136010BD1346EC
:205D40004008DDE7003000404AF6AA22014B1A60704700BF003000402DE9F0411E460368F9
:205D60001746054688469847069B079AC36000230261BDF82020C0E900878282084AC0E9BF
:205D800039334267074AC0E933330267064AC0E93533C0F8E0508660C266BDE8F08100BFF9
:205DA000CB6500082D660008B1660008C161704781627047C1627047D0F8E0305B6A1847A8
:205DC000D0F8E0309B6A03B11847704710B4D0F8E040A468A44610BC604737B500250446AC
:205DE0000368C582DB792A4629460095FFF7EEFFD4F8E03029465B6820469847E3691BB1DB
:205E000003B0BDE83040184703B030BD10B4D0F8E040E469A44610BC604710B4D0F8E040B9
:205E2000246AA44610BC6047D0F8E0301B691847D0F8E0309B691847D0F8E0305B69184786
:205E400008B54FF42370FFF740FC4FF0A043DA6842F04002DA601A69002AFCDA1A6942F033
:205E600001021A614FF0A0431A69D207FCD4DA6B1A49B2F5005F9A6B08462CBF42F404121E
:205E800042F410229A634FF0A043D3F8042822F00202C3F80428DA6842F0804242F4705259
:205EA000DA6002225A61D3F8002842F00302C3F800280022C3F8002E80225A62A1F8EC20AE
:205EC0009A6842F001029A60054A9A610F22C3F81C280122C3F8102808BD00BFCC71002020
:205EE00010280480D0F8E030DA6AD2F8003823F4FE6343EA0113C2F8003870472DE9F04719
:205F0000D0F8E0E0884611F07F019C46089FDEF82C6003F07F0440D13F2B33D9C6F80019EB
:205F2000DEF82C304FEA9C0CC3F81049DEF82C2044F00054D2F8003944F4002443F00843B3
:205F4000C2F80039DEF82C30C0F8F440C3F8104BDEF82C20D2F8003B43F00843C2F8003B80
:205F6000BEF83230DEF82C2043EA0C439362B0F8EC309C441FFA8CFCA0F8ECC0A0F8EEC0A7
:205F8000BDE8F0871F2B03D90123C6F80039C7E70F2B8CBF02230323F7E718F0800F4FEA78
:205FA00041154FEA82431CD144F4002400EB810206F53166C2F8F4407451DEF82C2005F575
:205FC000306543EA0C03AC5843F0144343F400432343AB50002FD3D00C2303FB0100076719
:205FE000CEE7B0F8EC904FEA9C0249EA024A01F1400846F828A04A44A0F8EC20DEF82C20DE
:2060000043EA815302F511625451DEF82C2005F5106543EA0C03AC5843F0184343F4004397
:206020002343AB50002FABD00C2303FB0103DF66A6E7B0F8EE3010B5A0F8EC304FF432633B
:20604000D0F8E020D16A58580028BEBF585840F080405850D16AA3F5007044582033002C42
:20606000BEBF445844F080444450B3F5386FE9D1D36A4FF486621A6110BD10B5D0F8E04015
:20608000E06AF1B9D0F800395AB143F40013C0F80039E26A583149018B5843F400138B509E
:2060A0001AE023F40013C0F80039E26A583149018B5823F400138B50E26A8B5843F080538F
:2060C000EDE70B0613D501F07F0348335B0122B11A5842F400121A5010BD1A5822F400124B
:2060E0001A50E16A5A5842F080525A50F4E7002ADBD0CEE70A06D0F8E03048BF01F07F01C6
:20610000DB6A4CBF483158314901C858C0F3405070470B060CD4431883F8F020D0F8E0301A
:206120005831DB6A490122B1CA5842F00062CA507047CA5842F08062F9E7F0B5D0F8E0602A
:2061400001F07F01F06A4C0100F5116005592D0316D41D4643F400270751F76A04F5106462
:20616000E059013140F00440E0510903002D01DC1846F0BDF06A52F8044B043D0C50F5E782
:206180000023F5E737B5B0F8044101469C4228BF1C46154623461046032B1ADC14F0030272
:2061A00014D0D1F8E030A008DB6A05EB800003F580531B680193B1F80431042B38BF0423B8
:2061C000043BA1F8043101A900F0C0FD204603B030BDD1F8E020043BD26A02F580521268CE
:2061E00040F8042BB1F80421043AA1F80421D3E7D0F8E0302DE9F047DA6A0446566916F438
:20620000005509D0BDE8F0474FF400515B8E5161A0F8EC30FFF7E1BD4FF00C094FF0010A5F
:2062200000F16C08D4F8E0306F01DB6A03F60813DB59D9070ED509FB05F358F8033013B11A
:206240002046E9B29847D4F8E030DB6A03F6081343F807A00135042DE4D1F20654D5D4F83E
:20626000E010C86A026A02F4F013B3F5002F02F00F0522D10C2303FB0543294620465B6FB3
:206280009847D4F8E01004EB8500CA6AD0F8F4006B0102F53162D050254495F8F000C96AD0
:2062A00000280CBF4FF004404FF0084003F530635A5802435A50BDE8F087B3F5C02FE0D052
:2062C000B3F5802F01D1012309E0B3F5402FF2D16F0100F51163DB591B0353D40223C2F382
:2062E0000A12022BA4F8042175D108232946204604F13402FFF746FF0023B4F80411994229
:2063000073DC0023A4F80431310508D5236A03B198474FF40062D4F8E030DB6A5A61002E58
:2063200008DA636A03B198474FF00042D4F8E030DB6A5A61320707D5A36A03B198470822DF
:20634000D4F8E030DB6A5A61330408D5E36A03B198474FF40042D4F8E030DB6A5A61D4F840
:20636000E010A26ACB6A002A47D09A6942F008029A61E26ACB6A002A43D09A6942F4004238
:206380009A6198E707F5106350F803C04CF0006C40F803C0C86A00F6081CBC44DCF800E066
:2063A0001EF0400FFAD01B589B0DD0F810C0BCF1000FFADA9B0103F4707343F02003036143
:2063C0000020CB6A03F51163D851CB6A103319688806FCD482E70C2303FB05431B6F002BE9
:2063E0008AD029462046984786E7D4F8E0200433D26A02F58052126881E79A6922F0080219
:20640000B6E79A6922F40042BAE7D0F8E030DB6AD3F8042821B142F00202C3F80428704729
:2064200022F00202F9E710B503680446D979B0F84030C26B994211D20B460021FFF7E6FC4D
:20644000022384F830302368DA79E36B1344E363B4F840309B1AA4F8403010BD0021FFF7B1
:20646000D5FC94F84830C3F1030384F83030002384F84830A4F84030E363EEE72DE9F74F17
:2064800004460E46054600F1200A00F1400B00F13C0800F14409EF6C57B1317895F851203F
:2064A00095F8503011408B420DD008355545F2D13146204604F1400304F13C0203B0BDE89A
:2064C000F04F00F0DDBB5B46424631462046CDF80090B8470128E8D803B0BDE8F08F10B516
:2064E000012200210446FFF79FFC002384F8303010BD70B50368B0F84020448FDB79A41A34
:206500009C42A8BF1C46C16BA6B20A44334600210546FFF782FC864205D02846FFF7DFFFCA
:206520004FF0FF3070BDB5F84030A0B21E44A5F84060F7E738B503690446C3638B79CA79C4
:206540000D4643EA0223A0F84030FFF797FF08B3EB88B3B1B4F84020934210D942B1236828
:20656000DB79B2FBF3F103FB1122B2FA82F25209204684F84820BDE83840FFF754BF0022F8
:20658000F6E71A4619462046FFF740FC042384F8303038BD2046BDE83840FFF7A0BF70B5D2
:2065A0000446002500F14C0656F8350028B10135042DF9D14FF0FF3070BD04EBC50484F8CD
:2065C000501084F85120E364F6E770B50025044601222946456400F13406FFF72DFC628F40
:2065E0002AB931462046BDE87040FFF7A3BF94F93430002BF5DBA38A934204D22046BDE85F
:206600007040FFF76CBF2369A4F84050E36323682946DB79204693422CBF0623052384F86A
:2066200030302A46BDE87040FFF706BC10B590F830300446062B13D0072B28D0052B22D125
:20664000FFF757FF01300AD0B4F84020638F9B1A2268D279934202DC062384F8303010BDD6
:20666000FFF747FF0130FAD0204604F13401FFF705FF38B1002320461A461946FFF7C6FB71
:206680000423EAE72046BDE81040FFF728BF00231A461946FFF7C1FB002384F83030636C68
:2066A0001BB1204604F13401984700236364D6E710B590F830300446032B07D0042B0ED0EF
:2066C000022B23D1BDE81040FFF7ADBE0723002280F830301146BDE81040FFF7ADBB436CC6
:2066E00013B100F13401984794F8343053B994F83530052B06D1E18ED4F8E03020465B6869
:20670000C9B29847002384F8303010BDBDE81040FFF7E5BE08B50B7873B949887F2909D8FF
:20672000D0F8E030C9B2817593F830200AB15B6898470123184608BD0023FBE7F8B50D468C
:206740004988044679B103680D26587C0023984201D80020F8BD626806FB032252798A4250
:2067600003D00133F3E74FF0FF330133DBB2E3754BB9D4F8E0302046DB689847D4F8CC307E
:206780009BB90120E6E70D22534362680D3B1A440023184611799942EBD9D2F809101E01D6
:2067A000715801B108700133F4E7002304F1C806E3646365E365636604F1D80756F8043F6C
:2067C00013B1204669889847BE42F7D1D9E71988012984BF01211980C37D11682BB142682F
:2067E0000D2000FB032313F8083C01200B70704770B51C460D23C27D5A4343680D3A1344CD
:206800001D798A88954219D9D3F80950160105EB02124B8812799A4210D9AA5952B113701C
:20682000D0F8DC3013B14A888988984700230120238070BD002BF3D01046FAE70020F8E7C6
:2068400030B50D25C47D40686C430D3C20448D880479A5420CD201241C808B88D0F80900E0
:206860001B011B5803B11B7801201268137030BD0020FCE719880120022984BF0221198048
:20688000002311680B7012685370704710B514461A88022A84BF02221A808988C9B2FFF77D
:2068A000C7FA003818BF0120002223681870236801205A7010BD08B589880122C9B2FFF70D
:2068C000B3FA012008BD08B589880022C9B2FFF7ABFA012008BD2DE9F04F1F464B88164650
:2068E0001A0A022A054689B011D0032A00F0F080012A40F0448103683A8833601B7893420E
:2069000028BF13463B80012009B0BDE8F08F0269DBB2326002920D2202FB03F8D0F80490DD
:206920003C8819F8085009EB0803A54228BF254619462A460298049300F008FA029B641BE4
:206940005E19002319F80880A4B20193049B1A79BDF804309A4204D8029BA3F802803D80D0
:20696000D1E7019B019A1B010593049BD3F8093003EB0213D3F808A0BAF1000F15D09AF82A
:2069800000903046A14528BFA14651464A4600F0DDF99AF80030A4EB09044E444344A944EC
:2069A000A4B21FFA89F51FFA83F800230393049B059AD3F8093013441979BDF80C209142BE
:2069C00002D8019B0133C0E71521039AD3F80CA001FB02F91AF809B00AEB0903A34528BF8A
:2069E000A34619465A463046009300F0AFF91AF80930A4EB0B0443441FFA83F8009B5E44CD
:206A0000D3F80D10AB44A4B21FFA8BF5B9B1D3F811A03046A245A8BFA2461FFA8AF94A46F2
:206A200000F094F9009BA4EB0904D3F811304E444344A944A4B21FFA89F51FFA83F84FF0D0
:206A40000009009B1A791FFA89F39A4202D8039B0133ABE7009BC9EB091BD3F80930304663
:206A600013F80B2003EB0B0AA24228BF224651460793069200F06AF9079B069A13F80B3006
:206A8000DAF80710A41A164443442A44A4B295B21FFA83F8C9B1DAF80B203046A242A8BF97
:206AA00022461FFA82FB5A46CDF818B000F04EF9DAF80B30069AA4EB0B044344AB44164459
:206AC000A4B21FFA8BF51FFA83F809F10109B8E713F0FF0304690DD10923A3700423E37087
:206AE00023703B88042B28BF04233B8003236370346008E7D0F8E4209A4219D1D0F8E8503A
:206B0000284600F099F901304000C0B220703B88834228BF03463B8000233A885208013A25
:206B20009A42E3DDE95C04EB430251800133F4E78068013B00283FF4E7AEEA689A421EDD23
:206B400040F209428988914219D150F82350284600F072F901304000C0B220703B8883426B
:206B600028BF03463B8000233A885208013A9A42BCDDE95C04EB430251800133F4E70020C2
:206B8000C2E619880120022984BF02211980002311680B70126853707047002310B500F17D
:206BA000C80252F8044F3CB18C4209D00133042BF7D14FF0FF3010BD00EB8300C0F8CC1072
:206BC0000020F8E7C0F8DC107047000030B44C78092C12D8DFE804F005111111110D0F1163
:206BE000090B074CA44630BC6047064CFAE7064CF8E7064CF6E7064CF4E7002030BC70472E
:206C000075680008CF6700083D67000815670008D768000810B44C780A2C06D00B2C06D039
:206C20003CB9054CA44610BC6047044CFAE7044CF8E7002010BC7047836B00084168000807
:206C4000F167000810B44C78012C05D0032C08D074B1002010BC70474C88002CF9D1054C60
:206C600003E04C88002CF4D1034CA44610BC6047024CFAE7C7680008B76800088D68000836
:206C800010B40C7814F0600F0FD104F01F04012C05D0022C06D044B910BCFFF797BF10BC5B
:206CA000FFF7B8BF10BCFFF7CDBF002010BC7047830730B546D08446841805E0634603F802
:206CC000011B9D0703D09C46A445F7D130BD013A0244A2EB0C02032A29D9CCB204EB0424C1
:206CE0000F2A04EB04442FD9A2F1100C2CF00F0C03F11005AC44C3E90044C3E90244103318
:206D00006345F8D112F00C0F02F00F0E18D01A462EF0030C9C44AEF1040542F8044B6245A9
:206D2000FBD125F0030404330EF003022344002ACCD0C9B21A4403F8011B9342FBD130BD86
:206D40007246F4E70346C6E79646E0E7844641EA000313F0030349D1403A23D30B680360A6
:206D60004B6843608B688360CB68C3600B6903614B6943618B698361CB69C3610B6A036257
:206D80004B6A43628B6A8362CB6AC3620B6B03634B6B43638B6B8363CB6BC3634030403114
:206DA000403ADBD230320BD30B6803604B6843608B688360CB68C36010301031103AF3D284
:206DC0000C3205D351F8043B40F8043B043AF9D2043208D0D2071CBF11F8013B00F8013B5A
:206DE00001D30B8803806046704700BF082A13D38B07B1D010F00303AED0C3F10403D21A37
:206E0000DB071CBF11F8013B00F8013BA4D331F8023B20F8023B9FE7043AD9D3013A11F856
:206E2000013B00F8013BF9D20B7803704B7843708B7883706046704720F0030110F0030041
:206E4000C0F1000051F8043B00F1040C4FEACC0C6FF000021CBF22FA0CF213434FF0010CEF
:206E60004CEA0C2C4CEA0C4CA3EB0C0222EA030212EACC1204BF51F8043B0430F4D0C2F199
:206E8000000102EA0102B2FA82F2C2F11F0200EBD2007047DEC0ADDEEFBEADDE0DF0ADBAD5
:206EA000BEBAADBA090200000201008032B46E000800000000000000010000000000000008
:206EC000E96E0008000000000100000000000000D46E000809040100020A000000FE6E0082
:206EE0000800000000000000000904000001020200001C6F00082B6F000813000000070524
:206F00000102400000000000000000000007058202400000000000000000000007058303CC
:206F20000800FF0000000000000000052400100104240203052406000105240100015354E1
:206F40004D6963726F656C656374726F6E6963730053544D3332205669727475616C2043D9
:206F60004F4D20506F727400303132333435363738394142434445460012010002020000F7
:206F80004083044057000201020301000701000400030200000000000000000000A24A0489
:206FA0000051250200A24A04415E0008E55E0008FD5E0008336000087B600008136100081A
:206FC000F56000083B61000885610008F16100080B640008000000500100800070FDFF7F35
:206FE00001000000000000000000002E322E312E312E300043482D332E320000796F0008D9
:207000004C00002003000000A46E0008694800080000000019480008154800085D490008B2
:2070200000000000E9490008F5490008000000003E6F0008516F0008580000203931310040
:20704000000000000000000000000000000000000000000000000000000000000000000030
:20706000000000000000000000000000000000000000000000000000000000000000000010
:207080000000000000000000000000000000000000000000000000000000000000000000F0
:2070A0000000000000000000000000000000000000000000000000000000000000000000D0
:208020000000000000C201000000080003030000000C01400400000003030000000C0140CB
:208040000008000003030000000C0140000400009A030000006800400E0000003F0000002F
:208060004000000003030000000C01404000000003030000000C01402000000003030000B4
:20808000000C0140100000000000000000000000DC30002090400020282100209A03000061
:2080A000006800400E0000003F0000004000000003030000000C0140002000000303000012
:2080C000000C01400010000003030000000C0140800000000000000000000000DC30002044
:2080E0009040002028210020990300000064004000000000130000001400000003030000BA
:20810000000C01400002000003030000000C01400001000003030000000C01400800000061
:208120000000000000000000F85F0020AC6F00204450002000127A0000127A0000127A0035
:0400000508000000EF
:00000001FF
